:100000000C9434000C9449000C9449000C94490061
:100010000C944B000C9449000C9449000C9449003A
:100020000C9449000C9449000C9449000C9449002C
:100030000C9449000C9449000C9449000C9449001C
:100040000C9449000C9449000C9449000C9449000C
:100050000C9449000C9449000C9449000C944900FC
:100060000C9449000C94490011241FBECFEFD8E036
:10007000DEBFCDBF11E0A0E0B1E0E6EBF3E002C0EF
:1000800005900D92AE30B107D9F70E94A5010C94EE
:10009000D9010C9400001F920F920FB60F921124F9
:1000A0002F933F934F935F936F937F938F939F9380
:1000B000AF93BF93EF93FF9365E084E290E00E94DB
:1000C0009000FF91EF91BF91AF919F918F917F91A0
:1000D0006F915F914F913F912F910F900FBE0F90B5
:1000E0001F901895FC01408121E030E001C0220FF3
:1000F0006A95EAF7242B20830895FC01508121E0C2
:1001000030E0C90101C0880F6A95EAF78523808332
:10011000808101C0220F4A95EAF7282B2083089599
:10012000FC01408121E030E001C0220F6A95EAF72E
:10013000242720830895811131C06330A9F050F441
:10014000662379F0613001F585B58B7F85BD85B576
:1001500082601FC0653071F06630B1F485B584608F
:100160000CC085B58B7F09C085B58B7F85BD85B5F6
:10017000826006C085B5846009C085BD85B58D7F68
:1001800085BD85B5816008C085B58B7F85BD85B58A
:100190008D7F85BD85B58E7F85BD0895813009F041
:1001A00043C06330D1F068F4662399F0613069F59B
:1001B000809181008B7F809381008091810082609B
:1001C0002CC0653099F0663001F580918100846023
:1001D00011C0809181008B7F0DC0809181008B7F49
:1001E0008093810080918100826009C080918100AC
:1001F00084600EC080938100809181008D7F809308
:1002000081008091810081600DC0809181008B7F91
:1002100080938100809181008D7F80938100809107
:1002200081008E7F80938100089581110CC08091A0
:100230006E00662321F0613011F4816001C08E7F71
:1002400080936E000895813059F480916F00662389
:1002500021F0613011F4816001C08E7F80936F00C6
:10026000089541E067E08AE290E00E947D008AE024
:100270008A95F1F700C040E067E08AE290E00C94D4
:100280007D00DF92EF92FF920F931F93CF93DF9346
:10029000E82FF0E0EC5FFE4FE080E62FF0E0E0506A
:1002A000FF4FD080C7E0D0E001E010E0F12CA801C2
:1002B0000C2E02C0440F551F0A94E2F74E215F2115
:1002C0000C2E02C0559547950A94E2F760E085E24E
:1002D00090E00E947D000E943101219740F7C7E025
:1002E000D0E0EE24E394F12C0D2D10E0A7010C2EAC
:1002F00002C0440F551F0A94E2F7402351230C2EED
:1003000002C0559547950A94E2F760E085E290E0D7
:100310000E947D000E943101219740F741E064E096
:100320008AE290E00E947D0085E08A95F1F7000066
:1003300040E064E08AE290E0DF91CF911F910F915D
:10034000FF90EF90DF900C947D0065E084E290E0F8
:100350000E94720041E065E085E290E00E947D002D
:100360008091680082608093680080916C00886052
:1003700080936C0080916C00846080936C0080910D
:100380006C00826080936C0060E084E290E00E94E8
:10039000720067E08AE290E00E94720064E08AE204
:1003A00090E00E947200789460E081E00E94410138
:0603B000FBCFF894FFCF23
:0E03B60008040201C0F9A4B0999282F8809068
:00000001FF
