:100000000C9434000C9451000C9451000C94510049
:100010000C9451000C9451000C9451000C9451001C
:100020000C9451000C9451000C9451000C9451000C
:100030000C9451000C9453000C9451000C945100FA
:100040000C9451000C9451000C9451000C945100EC
:100050000C9451000C9451000C9451000C945100DC
:100060000C9451000C94510011241FBECFEFD8E026
:10007000DEBFCDBF11E0A0E0B1E0E0E0F7E002C0FC
:1000800005900D92AC31B107D9F721E0ACE1B1E0B8
:1000900001C01D92AF31B207E1F70E94BF020C947C
:1000A0007E030C9400001F920F920FB60F92112442
:1000B0002F933F934F935F936F937F938F939F9370
:1000C000AF93BF93EF93FF93809101018F5F809374
:1000D000010160E08AE00E941401809101014AE080
:1000E0006CE171E090E00E9449038CE191E00E9494
:1000F000300161E081E00E9414018091010140E142
:100100006CE171E090E00E9449038CE191E00E9473
:10011000300161E088E00E9414018091010142E019
:100120006CE171E090E00E9449038CE191E00E9453
:100130003001FF91EF91BF91AF919F918F917F918E
:100140006F915F914F913F912F910F900FBE0F9044
:100150001F901895299A85E08A95F1F70000299853
:100160000895CF93C82F662311F0289A01C02898CC
:10017000549A559A569A579A5F985E985D985C98EB
:10018000C7FD5F9AC6FD5E9AC5FD5D9AC4FD5C9A87
:100190000E94AA005F985E985D985C98C3FD5F9A84
:1001A000C2FD5E9AC1FD5D9AC0FD5C9A0E94AA00E4
:1001B0005C9A5D9A5E9A5F9A8FE39FE10197F1F7EF
:1001C00000C00000CF91089528985D9A54985598E2
:1001D00056985798299A85E08A95F1F700004C9B2C
:1001E00002C080E101C080E04D9980624E99806438
:1001F0004F998068299895E09A95F1F70000299A1F
:1002000095E09A95F1F700004C9981604D998260D4
:100210004E9984604F9988602998089560E00C9405
:10022000B10061E00C94B100611102C0805801C0BE
:1002300080540C940E010E94E40087FDFCCF85E100
:100240008A95F1F700000E94E40090E0089581E0B3
:100250000C940E0182E00C940E0161E00C94B1004C
:10026000CF93DF93EC018991882319F00E942D012F
:10027000FACFDF91CF910895CF93DF93FC01849162
:10028000EF012196882321F00E942D01FE01F7CF76
:10029000DF91CF910895CF93C82F209A559A219A34
:1002A000549A559A569A579A8FEF99EF0197F1F70A
:1002B00000C000005D9A5C9A0E94AA008FE19EE453
:1002C0000197F1F700C000000E94AA008FEF90E0B4
:1002D0000197F1F700C000000E94AA008FEF90E0A4
:1002E0000197F1F700C000005C980E94AA008FEF10
:1002F00090E00197F1F700C0000088E20E940E0133
:1003000088E00E940E010E94270186E00E940E01F3
:100310008C2FCF910C940E01FC01408121E030E044
:1003200001C0220F6A95EAF7242B20830895FC016F
:10033000508121E030E0C90101C0880F6A95EAF7D9
:1003400085238083808101C0220F4A95EAF7282BFC
:1003500020830895FC01408121E030E001C0220F9C
:100360006A95EAF7242720830895811131C063300C
:10037000A9F050F4662379F0613001F585B58B7FE3
:1003800085BD85B582601FC0653071F06630B1F4FF
:1003900085B584600CC085B58B7F09C085B58B7F22
:1003A00085BD85B5826006C085B5846009C085BD00
:1003B00085B58D7F85BD85B5816008C085B58B7F8E
:1003C00085BD85B58D7F85BD85B58E7F85BD08953D
:1003D000813009F043C06330D1F068F4662399F0AE
:1003E000613069F5809181008B7F809381008091DD
:1003F000810082602CC0653099F0663001F58091F3
:100400008100846011C0809181008B7F0DC080913C
:1004100081008B7F8093810080918100826009C080
:100420008091810084600EC0809381008091810062
:100430008D7F809381008091810081600DC08091CB
:1004400081008B7F80938100809181008D7F8093DC
:100450008100809181008E7F8093810008958111B9
:100460000CC080916E00662321F0613011F4816030
:1004700001C08E7F80936E000895813059F4809181
:100480006F00662321F0613011F4816001C08E7F1E
:1004900080936F00089541E067E08AE290E00E9457
:1004A00097018AE08A95F1F700C040E067E08AE2B0
:1004B00090E00C949701DF92EF92FF920F931F93BD
:1004C000CF93DF93E82FF0E0EA5FFE4FE080E62F66
:1004D000F0E0EE5FFE4FD080C7E0D0E001E010E03A
:1004E000F12CA8010C2E02C0440F551F0A94E2F70C
:1004F0004E215F210C2E02C0559547950A94E2F7D4
:1005000060E085E290E00E9497010E944B022197F3
:1005100040F7C7E0D0E0EE24E394F12C0D2D10E07D
:10052000A7010C2E02C0440F551F0A94E2F7402386
:1005300051230C2E02C0559547950A94E2F760E0CE
:1005400085E290E00E9497010E944B02219740F7BC
:1005500041E064E08AE290E00E94970185E08A959C
:10056000F1F7000040E064E08AE290E0DF91CF9193
:100570001F910F91FF90EF90DF900C949701CF9314
:10058000DF93CDB7DEB7A0970FB6F894DEBF0FBEEE
:10059000CDBF8CE00E944B018091010148E06CE1ED
:1005A00071E090E00E94490380E191E00E943001F7
:1005B00060E08AE00E9414018CE191E00E94300129
:1005C00061E080E00E9414018091000140E16CE153
:1005D00071E090E00E94490384E20E942D018CE1C9
:1005E00091E00E94300161E08AE00E941401809154
:1005F000000142E06CE171E090E00E94490361E09B
:1006000086E00E94140189E191E00E94300165E0DA
:1006100081E00E94B50161E081E00E942F028E011D
:100620000F5F1F4F80E2F80111928A95E9F791E17F
:1006300099838FE18A839B838C839D838E839F83A1
:10064000888789878A879B878C879D878E879F87E6
:10065000888B998B80E40E940E017E01F9E0EF0EF9
:10066000F11CF80181918F010E9411010E151F05E7
:10067000C1F760E08DE00E94140180E00E942D012E
:1006800060E08EE00E94140181E00E942D017894C8
:10069000FFCFBB274A3031F4992322F4BDE2909575
:1006A00081959F4F0C945503BB27FB015527AA2723
:1006B000880F991FAA1FA41710F0A41B83955051EF
:1006C000B9F7A05DAA3308F0A95DA193009779F767
:1006D000B111B1931192CB010C946E03DC01FC01BA
:1006E000672F71917723E1F7329704C07C916D9366
:1006F00070836291AE17BF07C8F30895F894FFCFD7
:10070000FFAD08040201C0F9A4B0999282F880906C
:0C071000436F756E7465723A0030620031
:00000001FF
